:020000040800F2
:1000000090250020AD02000843330008372F000878
:100010004133000809040008054200080000000000
:10002000000000000000000000000000ED010008DA
:10003000890400080000000049020008BD3B0008D8
:10004000C7020008C7020008C7020008C70200086C
:10005000C7020008C7020008C7020008C70200085C
:10006000C7020008C7020008C70200080D04000804
:1000700019040008C7020008C7020008C7020008E8
:10008000C702000800000000C7020008C7020008FD
:10009000C702000891040008C7020008C702000850
:1000A000C7020008C7020008C7020008C70200080C
:1000B000C7020008C7020008C7020008C7020008FC
:1000C000C7020008C7020008C7020008C7020008EC
:1000D000C7020008C7020008C7020008F94100086B
:1000E000C7020008C7020008C7020008C7020008CC
:1000F000C7020008C7020008C7020008000000008D
:1001000000000000C702000800000000C70200084D
:10011000C702000800000000C7020008C70200086C
:10012000C7020008C7020008C7020008C70200088B
:10013000C70200080000000000000000C70200081D
:10014000C7020008C702000800000000000000000D
:10015000000000000000000000000000000000009F
:10016000000000000000000000000000C7020008BE
:10017000C7020008000000000000000000000000AE
:1001800000000000C702000800000000000000009E
:10019000000000000000000000000000000000005F
:1001A0000000000000000000C7020008C7020008AD
:1001B000C7020008C7020008C702000800000000CC
:1001C00000000000C702000800000000000000005E
:1001D000C7020008C7020008DFF80CD000F002F9DF
:1001E00000480047F1450008902500202C4B196875
:1001F0000868B0E8F04F80F30988BFF36F8F4FF0C5
:10020000000080F311887047000000000848006873
:10021000006880F308884FF0000080F3148862B60D
:1002200061B6BFF34F8FBFF36F8F00DF00BF00BF1A
:1002300008ED00E0DFF80C00016841F47001016096
:10024000704700BF88ED00E0EFF30980BFF36F8FC8
:10025000134B1A681EF0100F08BF20ED108A20E91A
:10026000F04F106009B44FF0500080F31188BFF3D5
:100270004F8FBFF36F8F05F043F94FF0000080F30D
:10028000118809BC19680868B0E8F04F1EF0100F1B
:1002900008BFB0EC108A80F30988BFF36F8F7047F6
:1002A0004C000020EFF305807047000006488047AF
:1002B00006480047FEE7FEE7FEE7FEE7FEE7FEE74B
:1002C000FEE7FEE7FEE7FEE7393C0008D90100083B
:1002D0002DE9F05F0546002092469B46884606467B
:1002E000814640241BE0284641464746224600F00E
:1002F00069F853465A46C01A914110D31146184620
:10030000224600F050F82D1A67EB01084F462246AE
:100310000120002100F047F817EB00094E41201E94
:10032000A4F10104DFDC484631462A464346BDE8D5
:10033000F09F40EA01039B0703D009E008C9121FA0
:1003400008C0042AFAD203E011F8013B00F8013B8F
:10035000521EF9D27047D2B201E000F8012B491EBB
:10036000FBD270470022F6E710B513460A46044652
:100370001946FFF7F0FF204610BD30B50B46014689
:1003800000202022012409E021FA02F59D4205D334
:1003900003FA02F5491B04FA02F52844151EA2F1DE
:1003A0000102F1DC30BD202A04DB203A00FA02F120
:1003B000002070479140C2F1200320FA03F3194353
:1003C00090407047202A04DB203A21FA02F00021F5
:1003D000704721FA02F3D040C2F120029140084355
:1003E00019467047064C074D06E0E06840F00103EF
:1003F00094E8070098471034AC42F6D3FFF7F0FEBC
:1004000088600008A8600008FEE70000014800F0CE
:10041000D0BE000008020020014800F0CABE000063
:10042000680200200D4902688A4201D20C4901E0AD
:100430000B492031D2B2083A1423B2FBF3F2436CD9
:1004400023F003031944816405498031C16402F03B
:100450001F0201219140016570470000080402401D
:10046000000802400179074A491E02EB81024265F9
:10047000044A4032826501F01F0201219140C165AA
:100480007047000000090240704772B6FEE70000A6
:10049000014801F0B2B80000C802002010B51549AB
:1004A0000164036853F8802F848E22F4F81242EA24
:1004B00004421A600F4A70324264036853F8802F76
:1004C00090F8384022F0706242EA04621A60094AE9
:1004D000B0328264084AC264074AD8320265064ACA
:1004E000F0324265002001F5547200E001C19142F2
:1004F000FCD310BD00A4004088A50040F0B5D1E9B0
:1005000001650C692C430D68002E19D045F080451B
:100510002C43D1E90665354391F820704E6946EACF
:10052000076635438E8945EA0645406D03EBC303F4
:1005300000EBC3031C605D60083300200B4E0FE02E
:1005400044EA8544E5E71418155CE77845EA076551
:10055000A77864783F0447EA0424254320C3001D9C
:10056000CC68345D8442EED8F0BD00000C60000819
:1005700070B5F0EE602AB0EE413A2E4908600020D6
:10058000486088600822CA60086148618861C86163
:10059000086210209FED281ADFED280A04F006F803
:1005A00002460C209FED261ADFED260AB0EE620A05
:1005B00003F0FCFF0346DFED252A0C209FED221AF5
:1005C000F0EE620AB0EE430A03F0F0FF04460C209E
:1005D000B1EE041AF0EE620AB0EE610A03F0E6FF33
:1005E00005460C20B2EE041AFAEE040AB0EE420AF6
:1005F00003F0DCFF06461649100A08704A70180915
:1006000088701A0142EA1420C8700C7128094871D8
:100610002A0142EA16208871CE710A4605490D4822
:1006200000F0FEFE002804D0BDE870400AA003F0F0
:10063000EBBD70BD08210020CDCC9641CDCC96C13C
:1006400000003442000034C20000FA430000000001
:10065000CC000020C8020020464443414E20536590
:100660006E64204D4954204661696C65640D0A0032
:1006700001B52DED020B00F58070184908600020CF
:10068000486088600822CA60086148618861C86162
:10069000086213489DF8001001709DF80110417028
:1006A0009DF8021081709DF80310C1709DF8041030
:1006B00001719DF8051041719DF8061081719DF83A
:1006C0000710C17102460549064800F0A9FE00283E
:1006D00002D005A003F098FD0EBD00000821002007
:1006E000CC000020C8020020464443414E20536500
:1006F0006E6420594157204661696C65640D0A009B
:1007000010B5154A002902D0FC21D17101E0FD216C
:10071000D171124900F5807008600020486088603F
:100720000823CB60086148618861C8610862FF20C6
:10073000107050709070D070107150719071064AA6
:10074000074800F06DFE002804D0BDE8104005A069
:1007500003F05ABD10BD0000CC000020082100208D
:10076000C8020020464443414E2053656E64205326
:1007700054415445204661696C65640D0A000000CF
:1007800000B587B000200190029002210391012161
:1007900004910590069001A90C4800F068FE10B184
:1007A0000BA003F031FD094801F035F910B110A09C
:1007B00003F02AFD00220121044800F0C1FD0028B9
:1007C00002D011A003F020FD07B000BDC802002038
:1007D000464443414E2046696C74657220436F6EF7
:1007E000666967204661696C6564210D0A00000036
:1007F000464443414E205374617274204661696CD3
:100800006564210D0A000000464443414E204E6FAE
:1008100074696669636174696F6E204661696C65AD
:1008200064210D0A000000002DE9F0479CB0044649
:100830000D464FF0000994F8580001280DD0012012
:1008400084F8580000261896199620684FF0A048A2
:100850002D4F404505D1019704E002201CB0BDE8B2
:10086000F0870196019840B1019802F077FB82462B
:10087000206802F073FB40B10AE0E06D40F0200018
:10088000E06584F858600120E8E7BAF1000F09D06C
:10089000E06D40F02000E0654FF0010984F85860F9
:1008A0004846DBE71948296840F61F72D1B18168D4
:1008B00094F8383021F4604141EA43316B681943C0
:1008C0008160D8F80810C1F30001BB68C3F30003CE
:1008D0001943E3D1AB6829681943836893431943EB
:1008E0008160DBE7816821F460418160D8F80810FD
:1008F000C1F30001BB68C3F300031943CED1816883
:1009000091438160CAE700000001005000030050DD
:100910002DE9F84F04460D46002600270097DFF822
:10092000F49394F85800012811D04FF0010884F88E
:100930005880206802F00EFB58B1E06D40F02000B6
:10094000E065012684F858703046BDE8F88F022033
:10095000FBE7A98820682A6801F4407300EB931034
:10096000036B01F01F014FF01F0C0CFA01FCC2F3E6
:10097000846223EA0C038A4013430363206802F075
:10098000E9FA8246206802F0DDFA5AEA000A3CD110
:10099000AA68B2F1004F39D02968206802F0E2FA63
:1009A0002068416921F00041416120686A69C1689D
:1009B000C1F3C10149008A402969042934D02B6858
:1009C00000EB8100016EDFF850C303F0F84301EA49
:1009D0000C011343194341F00041016620682A6964
:1009E000A96900EB8200026E22F080720A4302665F
:1009F000297F20682A69012913D0002100EB820099
:100A0000026E22F000720A4302667CE0296800222E
:100A1000206802F0A7FA2068416941F00041416175
:100A2000C3E74FF00071E9E7002102F085FA4003C7
:100A30006ED00021206802F07FFA90FAA0F0B0FAA0
:100A400080F1286842036AD090FAA0F0B0FA80F0F2
:100A5000814204D100221146206802F092FA01215D
:100A6000206802F069FA40035CD00121206802F09E
:100A700063FA90FAA0F0B0FA80F12868420358D0E7
:100A800090FAA0F0B0FA80F0814204D10022012156
:100A9000206802F076FA0221206802F04DFA400345
:100AA0004AD00221206802F047FA90FAA0F0B0FA8A
:100AB00080F12868420346D090FAA0F0B0FA80F0A6
:100AC000814204D100220221206802F05AFA032157
:100AD000206802F031FA400338D00321206802F088
:100AE0002BFA90FAA0F0B0FA80F12868420334D0D3
:100AF00090FAA0F0B0FA80F0814204D100220321E4
:100B0000206802F03EFA206802F020FA40B3B0E01C
:100B10000021206802F010FAC0F3846191E7C0F36D
:100B2000846095E70121206802F006FAC0F3846131
:100B3000A3E7C0F38460A7E70221206802F0FCF974
:100B4000C0F38461B5E7C0F38460B9E7032120688E
:100B500002F0F2F9C0F38461C7E7C0F38460CBE729
:100B600020682A7B296850F8B03FC1F3120C23EAB1
:100B70000C0302F0180C694A22FA0CF20A401343E3
:100B80000360E868484574D12868410319D090FA99
:100B9000A0F1B1FA81F1491C01F01F01092931D8F6
:100BA0004103002910D090FAA0F1B1FA81F101F1CE
:100BB000010101F01F0108FA01F808D1C0F38461B6
:100BC00009E0C0F38461E6E7C0F38461EFE790FADF
:100BD000A0F1B1FA81F101F1010101F01F0148EA30
:100BE000816102D1C0F3846003E090FAA0F0B0FA12
:100BF00080F000F1010000F01F0000EB400041EA2E
:100C0000005132E04FEA403100290DD090FAA0F1B6
:100C1000B1FA81F101F1010101F01F0108FA01F8B7
:100C200005D1C0F3846106E0C0F38461F2E790FA75
:100C3000A0F1B1FA81F101F1010101F01F0148EACF
:100C4000816102D1C0F3846003E090FAA0F0B0FAB1
:100C500080F000F1010000F01F00A0F10A0000EB9D
:100C6000400041EA005040F00071AA68206802F09C
:100C700079F92B48296801423FF464AE294A90680B
:100C800000F0E070284B994202D0284B99421FD1C6
:100C900003021DD42168B1F1A04F7FF453AE40F49C
:100CA0000000916821F0E0710143916020482149E2
:100CB0000068B0FBF1F0401C00EB400080000090A9
:100CC00002E00098401E009000980028F9D139E613
:100CD000194D1A4BA9420CD1C5010AD42168994279
:100CE000F5D040F08070916821F0E071014391608F
:100CF00028E6134DA942EAD14102E8D4216899427D
:100D0000E5D040F48000916821F0E07101439160EA
:100D100018E6000000007F4000F0FF03FFFF07001F
:100D20000000088000030050000021C31000C090A4
:100D300048000020400D0300000052C70001005091
:100D4000000084CBF8B50446002500260096002C50
:100D500002D0E06D10B107E00120F8BD204600F0A0
:100D6000F1F8266684F8586020688168C1F3407104
:100D700019B181686C4A1140816020688168C1F3B3
:100D80000071A1B98168694A114041F080518160C8
:100D9000674868490068B0FBF1F0401C40000090D3
:100DA00002E00098401E009000980028F9D12068C9
:100DB0008168C1F3007141B9E16D41F01001E16555
:100DC000216E41F001012166012502F0C3F8E16DB9
:100DD000C90600D430B1E06D40F01000E065012597
:100DE0002846F8BDE06D20F4807040F00200E06518
:100DF000206802F0ABF888B94FF0A0408068C0F3DB
:100E000000004D498968C1F30001084306D16068BC
:100E10004A498A6822F47C1202438A60E168E06BE6
:100E2000627F0843A16841EA4231084394F82410E4
:100E300040EA0140012903D1218D491E40EA414089
:100E4000E16A29B101F47871226B014342EA0100A1
:100E50002168CA683A4B1A400243CA602068016997
:100E6000626B21F0406111430161206802F06AF871
:100E700080BB207F94F83810800340EA410120684D
:100E8000C26844F202039A430A43C260206968B10F
:100E90002068016941F480310161206850F8C01F69
:100EA00022696FF30D01114301600AE020680169B6
:100EB00021F480310161206850F8C01F6FF30D01EB
:100EC000016094F84000012813D02068016921F0E6
:100ED00001010161606901281CD02068016B21F0CB
:100EE0000F010163E06D20F0020040F00100E065B9
:100EF00076E7D4E911100143D4E91302104301430A
:100F00002068026940F2FC739A43114341F00101E9
:100F10000161DFE72068016B226A21F00F01521E98
:100F200011430163DEE70000C0FFFF5FC0FFFF7FEA
:100F300048000020400D0300000100500003005055
:100F40000740F0FF2DE9F04F97B00446142112A896
:100F5000FFF708FA442101A8FFF704FA4FF4004212
:100F6000206800269103DFF854B12027544D4FF03C
:100F7000030A4FF080084FF48079B0F1A04F12D0EF
:100F8000504B984250D10192109101A800F056FFA9
:100F900008B1FFF77AFADBF80000401CCBF800003C
:100FA000012844D04BE00192109101A800F046FFC7
:100FB00008B1FFF76AFADBF80000401CCBF800002C
:100FC000012807D1E86C40F40050E864E86C00F4B4
:100FD00000500090E86C40F00100E864E86C00F01C
:100FE0000100009007201290CDF84CA0149612A991
:100FF0004FF0904000F02CFD344D33482860052020
:101000006860AE60EE60C5F81080C5F814904FF4CB
:101010008060A861EF612E62284600F031F908B1C6
:10102000FFF733FA6565AC6217B0BDE8F08FE86C86
:1010300040F40050E864E86C00F400500090E86C64
:1010400040F00100E864E86C00F001000090E86CFA
:1010500040F00200E864E86C00F002000090129793
:10106000CDF84CA0149612A94FF0904000F0F0FC7F
:1010700040F604001290CDF84CA0149612A9144822
:1010800000F0E6FC1048114D143060352860242033
:101090006860AE60EE60C5F81080C5F814904FF43B
:1010A0008060A861EF612E62284600F0E9F808B17F
:1010B000FFF7EBF96565AC62B6E700003800002089
:1010C0000010024000010050080002400802002009
:1010D0000004004810B5002190F825200123022AC1
:1010E00003D00421C163012122E00268146824F0C6
:1010F0000E041460826C146824F480741460026816
:10110000146824F00104146090F84420046C02F088
:101110001F0203FA02F26260D0E913426260426D7C
:1011200032B1146824F480741460D0E9164262600D
:101130002430437000220270084610BD70B50024B0
:1011400090F8251000230122022906D00421243022
:10115000816142700370012429E001680D6825F067
:101160000E050D6001680D6825F001050D60816CAC
:101170000D6825F480750D6090F84410154601F057
:101180001F018A40016C4A60D0E913215160416D12
:1011900031B10A6822F480720A60D0E916215160E8
:1011A00080F8255080F82430816B01B188472046B3
:1011B00070BDF0B4016C0A6801680B6890F8444097
:1011C000042604F01F0406FA04F5154215D05D0745
:1011D00013D50A68920603D40A6822F004020A6052
:1011E00090F8441001F01F0106FA01F5016C4D6002
:1011F000016B002941D0F0BC08474FF0020C0CFAFB
:1012000004F616424FF000074FF0010519D09E0773
:1012100017D50A68920605D40A6822F00A020A6005
:1012200080F8255090F8441001F01F010CFA01F6E7
:10123000016C4E6080F82470C16A00291DD0F0BC9A
:1012400008470826A640164217D01A0715D50A687F
:1012500022F00E020A6090F84410026C01F01F01A7
:1012600005FA01F15160C56380F8255080F82470BB
:10127000416B002901D0F0BC0847F0BC704700006A
:1012800070B50446002C0DD02A4A206814219042E3
:101290000AD2294A0244B2FBF1F18900616427496C
:1012A00021640BE0012070BD224A52420244B2FB8D
:1012B000F1F1890061641F4908392164022184F831
:1012C0002510026847F6F0718A43D4E902131943E6
:1012D000D4E904352B431943A3691943E36919433E
:1012E000236A1943114301602046FFF79BF8A06869
:1012F0000025B0F5804F00D16560A16C20790860B1
:10130000D4E9131048606068401E032808D82046BE
:10131000FFF7A8F8606D0560D4E91610486002E098
:101320006565A565E5652434A561012060702570BB
:10133000002070BD08040240F8FFFDBF000002401D
:1013400030B590F85C30012B07D0022B05D0016E30
:1013500041F002010166012030BD0468A36D4D0714
:1013600001D0DD071DD011F0380F01D09D0718D531
:1013700011F4E07F01D05D0713D511F4F05F01D0C7
:101380001D070ED511F4604F01D0DD0609D511F40B
:10139000403F01D09D0604D511F47C0F05D05D06B9
:1013A00003D4E56D45F00105E5654C0701D0DC0788
:1013B0001DD111F0380F01D09C0718D411F4E07F33
:1013C00001D05C0713D411F4F05F01D01C070ED4D8
:1013D00011F4604F01D0DC0609D411F4403F01D074
:1013E0009C0604D411F47C0F06D05B0604D5036878
:1013F000DC6D44F00204DC650B0604D5036853F889
:10140000DC4F14431C60CB0504D5036853F8E04F50
:1014100014431C600068426D0A434265002030BDE1
:1014200070B5044694F85C00022805D0206E40F0A8
:1014300008002066012070BD2068D0F8C4309B02EF
:1014400005D5206E40F400702066012070BDD0F8F4
:10145000C400C0F301452B462046FFF74FF8216832
:101460000120A840C1F8CC00A065002070BD10B5D7
:1014700090F85C20012A07D0022A05D0016E41F0C5
:1014800002010166012010BD0A687AB10B7B0A696E
:1014900042EA43720C7A4B6943EA8473406C4968B0
:1014A00000EBC10002604360002010BD0B7A4A6966
:1014B0000C8A42EA83720B7BDB0643EA04431A433D
:1014C000006C496800EB81000260EDE770477047EF
:1014D000F0B5002490F85C50022D05D0016E41F06B
:1014E000080101660120F0BD402942D00568D5F809
:1014F000986036075DD0D5F89860F60104D5D5F828
:101500008060F60500D50124D5F89850C5F3012573
:101510002E19C46C06EBC60504EBC5052C6804F057
:1015200080445460F4B32C6824F0604414602C6848
:1015300004F0005494602C6804F000441461AC88FA
:10154000A4B2D4616C68C4F30344D4606C6804F43E
:10155000801454616C6804F4001494616C68C4F3E2
:10156000066414626C680835E40F54620024214F4D
:101570002FE00568D5F89060360714D0D5F8906054
:10158000F60104D5D5F88060B60500D50124D5F85C
:101590009050C5F301252E19846C06EBC60504EBAB
:1015A000C505BBE70BE0016E41F4807101660120C7
:1015B000F0BD016E41F4807101660120F0BD2C6820
:1015C000C4F38A441460B2E715F804C003F804C0F9
:1015D000641CD2F80CC017F80CC0A445F4D84029FC
:1015E00004D00068C0F89C600020F0BD0068C0F81E
:1015F0009460F9E70C60000870472DE9F05F04463D
:101600002068016D01F4E051D0F8548008EA010827
:10161000016D01F00701D0F8549009EA0109016D4C
:1016200001F03801D0F854A00AEA010A016D01F472
:101630007101476D0F40016D01F46021D0F854B085
:101640000BEA010B456D016DCE43710607D4E943EA
:10165000490604D4402101652046FFF7CDFFF0057F
:101660000ED4E843C0050BD42068D0F8D820D0F8B9
:10167000E01011404FF480720265204600F0E3F95B
:10168000B8F1000F06D02068C0F8508041462046CF
:1016900000F0DBF9B9F1000F06D02068C0F85090D7
:1016A0004946204600F098F9BAF1000F06D02068AC
:1016B000C0F850A05146204600F0ACF9B00509D45E
:1016C000E843800506D421684FF400700865204681
:1016D00000F0BCF930060DD4E84300060AD42068B7
:1016E000D0F8D420D0F8DC101140802202652046CA
:1016F00000F0AAF9B00409D4E843800406D42168B4
:101700004FF400500865204600F09CF9300409D4DD
:10171000E843000406D421684FF4004008652046E1
:1017200000F08FF970040AD4E843400407D421681C
:101730004FF480400865206E40F080002066BBF1C9
:10174000000F06D02068C0F850B059462046FFF779
:10175000BEFE27B120680765206E38432066206EE4
:10176000002802D02046FFF7B1FEBDE8F09F000040
:101770002DE9F0470446002C07D0724F4FF4407912
:1017800094F85C00002618B107E00120BDE8F0875E
:1017900084F85D60204600F0D9F82068816921F066
:1017A0001001816100F03AFA05464FF003080CE0A1
:1017B00000F034FA401B0A2807D9206E40F00100DF
:1017C000206684F85C800120E0E7206880690007DB
:1017D000EED42068816941F00101816100F01EFAB8
:1017E00005460CE000F01AFA401B0A2807D9206EC3
:1017F00040F00100206684F85C800120C6E7206884
:101800008069C007EED02068816941F002018161E2
:101810002068B84202D14C4960680860207C0128E9
:1018200039D02068816941F040018161607C0128E4
:1018300037D02068816921F480418161A07C012832
:1018400035D02068816941F48051816120688169C7
:10185000A26821F44071114381612068816921F0FF
:10186000A40181612068016921F010010161E06833
:10187000012822D030B302282BD02068816941F0A2
:10188000800181612068016941F010010161E06817
:10189000032818D022E02068816921F0400181618D
:1018A000C4E72068816941F480418161C6E720680E
:1018B000816921F480518161C8E72068816941F024
:1018C000040181610AE02068816941F020018161A1
:1018D00004E02068816941F020018161207E401E82
:1018E0004106E069401E41EA0020216A491E084382
:1018F000A18A491E40EA01402168C861A0684845A4
:101900000FD1A06AE16A401E491E40EA0121206B06
:10191000401E41EA0011A08C401E41EA00402168AF
:10192000C860206850F8C01FE26B11430160204678
:10193000FEF7B4FDA6652666012084F85C00002051
:1019400024E70000006400400065004010B598B036
:101950000446142113A8FEF705FD442102A8FEF752
:1019600001FD1B49206888422FD180140290002479
:101970000E9402A800F062FA08B1FEF786FD154841
:10198000816D41F000718165816D01F000710191FF
:10199000C16C41F00101C164C06C00F00100019014
:1019A0004FF4C050139002201490159416940920FF
:1019B000179013A9C00600F04BF80022052115204E
:1019C00000F09CF9152000F08BF918B010BD000054
:1019D000006400400010024000B58DB001AB03AAC6
:1019E0004021FFF775FD20B105A002F00DFC0DB000
:1019F00000BD039801A980B202F020FDF7E70000C6
:101A0000464443414E205258204572726F720D0A6F
:101A100000000000704790F85C10012905D0016EAD
:101A200041F00401016601207047022180F85C103A
:101A300001688A6922F001028A61002101660020A2
:101A40007047704770477047704770477047000095
:101A50002DE9F84F0022DFF888914FF001080327A5
:101A60004FF00F0C09F1040AA9F1040BB1E008FAD8
:101A700002F52B40002B72D00C7904F00304012CEA
:101A800001D0022C15D18668540007FA04FE26EA1C
:101A90000E06D1F80CE00EFA04FE4EEA060EC0F86F
:101AA00008E04468AC430D79C5F300159540254323
:101AB00045600C79E443A40708D0C568540007FAD0
:101AC00004F6B5438E68A6402E43C6600C7904F038
:101AD0000304022C11D1D40800EB8406356A5407A4
:101AE000E40E0CFA04FE25EA0E05D1F810E00EFA19
:101AF00004FE4EEA050EC6F820E00568540007FA19
:101B000004F6B5430E7906F00306A6402E430660A0
:101B10004C6814F4403F5BD0324C256E45F0010513
:101B20002566246E04F0010400942F4C22F0030576
:101B30002E19B56894074FEA147E0CFA0EF4A543EB
:101B4000B0F1904F04D0294CA04203D1012417E0FA
:101B5000002415E0264CA04202D1022410E037E018
:101B6000244CA04201D103240AE0234CA04201D11D
:101B7000042405E0214CA04201D1052400E0062404
:101B800004FA0EF42C43B460D9F800409C434D682D
:101B9000ED0200D51C43C9F80040DAF800409C4330
:101BA0004D68AD0200D51C43CAF80040DBF8004088
:101BB0009C434D68AD0300D51C43CBF80040084D55
:101BC000083D2C689C434E68F60300D51C432C60EE
:101BD000521C0B6833FA02F47FF449AFBDE8F88F6A
:101BE00008040140001002400000014000040048C9
:101BF00000080048000C004800100048001400488D
:101C0000426921EA02030A4043EA024181617047C6
:101C1000002A01D081617047816270470148806865
:101C2000704700003C00002002488168426811446F
:101C3000816070473C00002010B50024032000F0B4
:101C40007DF80F2000F008F808B1012401E000F051
:101C500029F8204610BD000070B5054600240F4E3F
:101C60007068002817D04FF47A71B1FBF0F00C497E
:101C70000968B1FBF0F000F09DFD08B101240BE014
:101C8000102D06D200222946501E00F037F835608C
:101C900002E0012400E00124204670BD3C00002049
:101CA0004800002008B50D48016E41F001010166B1
:101CB000016E01F001010091816D41F0805181655B
:101CC000806D00F08050009000220F21901E00F0E7
:101CD00015F8BDE8084000F0A9B800000010024067
:101CE000002809DB00F01F0201219140400980001B
:101CF00000F1E020C0F8001170470000F0B40D467C
:101D00000D4B1B68C3F30223C3F10704042C00D955
:101D10000424191D072901D2002300E0DB1E01263F
:101D200006FA04F1491E294099409E40761E16404D
:101D30003143F0BC02F078BA0CED00E000F007018E
:101D4000054A10684FF6FF03184040EA0120034996
:101D500008431060704700000CED00E00000FA0539
:101D60002F49304B0A6832214A432F4900280AD0B4
:101D7000B0F5007F2DD0086820F4C06040F480608A
:101D80000860002070470868C0F34120022805D091
:101D900051F8800F20F480700860F2E7D1F88000DD
:101DA00020F48070C1F88000086820F4C06040F41E
:101DB00000700860B2FBF3F0401C00E0401E4A696E
:101DC000520501D50028F9D148694005D9D503202D
:101DD00070470868C0F34120022805D051F8800FF1
:101DE00040F480700860CCE7D1F8800040F4807047
:101DF000C1F88000086820F4C06040F400700860FA
:101E0000B2FBF3F0401C00E0401E4A69520501D5C8
:101E10000028F9D148694005B3D503207047000078
:101E20004800002040420F000070004002488168D6
:101E300041F4804181607047007000402DE9F84F07
:101E40000446002600272068A04D000366D54FF009
:101E50000008A86DC00009D4A86D40F08050A865A6
:101E6000A86D00F0805000904FF00108DFF860A2EC
:101E7000DAF8000040F48070CAF80000FFF7CEFEE8
:101E8000814607E0FFF7CAFEA0EB0900022801D94E
:101E9000032603E0DAF80000C005F3D526B1374683
:101EA000B8F1010F36D039E0D5F8900000F4407059
:101EB00080B1216C81420DD055F8900F20F4407014
:101EC000296841F480312960296821F48031296032
:101ED00045F89009C00711D0FFF7A0FE814641F2F6
:101EE000883A07E0FFF79AFEA0EB0900504501D9B8
:101EF000032603E0D5F890008007F3D50EB13746EE
:101F0000CEE7D5F89000216C20F440700843C5F866
:101F10009000C5E7A86D20F08050A8652078C00724
:101F200007D0D5F88800616820F003000843C5F8A1
:101F300088002078800707D5D5F88800A16820F0B0
:101F40000C000843C5F888002078400707D5D5F86D
:101F50008800E16820F030000843C5F88800207848
:101F6000000707D5D5F88800216920F0C000084394
:101F7000C5F888002078800607D5D5F88800616903
:101F800020F440600843C5F888002078400607D553
:101F9000D5F88800A16920F440500843C5F88800AE
:101FA0002078000607D5D5F88800E16920F4404084
:101FB0000843C5F888002088C00507D5D5F88800F3
:101FC000216A20F440300843C5F888002088800545
:101FD00007D5D5F88800616A20F440200843C5F889
:101FE0008800208840050FD5D5F88800A16A20F424
:101FF00040100843C5F88800A06AB0F5801F03D1DF
:10200000E86840F48010E860208800050FD5D5F816
:102010008800E16A20F440000843C5F88800E06ABF
:10202000B0F5800F03D1E86840F48010E8602088A4
:10203000C0040FD5D5F88800216B20F0407008430C
:10204000C5F88800206BB0F1807F03D1E86840F4C8
:102050008010E86020884FF0006180040ED5D5F82C
:102060008800626B20F040601043C5F88800606B08
:10207000884203D1E86840F48010E860208840047A
:102080000ED5D5F88800A26B20F040601043C5F84B
:102090008800A06B884203D1E86840F48010E860B3
:1020A000208800040FD5D5F88800E16B20F040505F
:1020B0000843C5F88800E06BB0F1805F03D1E868A1
:1020C00040F48030E8603846BDE8F88F00100240E8
:1020D000007000402DE9F04704460D460027002C13
:1020E00017D0DFF8A091D9F8000000F00F00A84247
:1020F00011D2D9F8000020F00F002843C9F80000E1
:10210000D9F8000000F00F00A84204D00120BDE87B
:10211000F0870120FBE720785B4EC00741F2883A48
:102120004ED06068DFF86481032806D002281ED0F4
:102130003068400520D40120E9E73068800101D4EF
:102140000120E4E701F0FEF8404520D9B06810F026
:10215000F00F04D02078800719D5A068B8B9B0680E
:1021600020F0F00040F08000B06080270FE0306881
:10217000800301D40120CAE700F0BAF8404506D92F
:10218000B06820F0F00040F08000B0608027B068B8
:10219000616820F003000843B060FFF73FFD804610
:1021A00007E0FFF73BFDA0EB0800504501D90320F5
:1021B000ADE7B068616800F00C00B0EB810FF0D1C2
:1021C0002068810715D5400703D5B06840F4E0606A
:1021D000B0602078000705D5B06820F4605040F466
:1021E000E060B060B068A16820F0F0000843B06023
:1021F00005E0802F03D1B06820F0F000B060D9F87E
:10220000000000F00F00A84217D9D9F8000020F014
:102210000F002843C9F80000FFF700FD074606E05D
:10222000FFF7FCFCC01B504501D903206FE7D9F82C
:10223000000000F00F00A842F2D12078400705D539
:10224000B068E16820F4E0600843B06020780007DF
:1022500006D5B068216920F4605040EAC100B06042
:1022600000F046F8B1680A4AC1F30311515C01F06D
:102270001F01C8400749086007480068BDE8F047EB
:10228000FFF7EABC002002400010024000B4C40482
:1022900044600008480000203C000020014800681D
:1022A000704700004800002000B5FFF7F7FF054920
:1022B0008968054AC1F30221515C01F01F01C84041
:1022C00000BD0000001002405460000800B5FFF798
:1022D000E5FF05498968054AC1F3C221515C01F057
:1022E0001F01C84000BD00000010024054600008FB
:1022F00010B51A4A9068C0F38101194801290BD022
:1023000091684410C1F38101022906D09168C1F39C
:102310008101032903D0002010BD204610BDD168E3
:1023200001F00303D168C1F30311491C032B0DD045
:10233000B0FBF1F0D168C1F306214843D168C1F385
:102340004161491C4900B0FBF1F010BDB4FBF1F054
:10235000D168C1F306214843F0E7000000100240B5
:102360000024F4002DE9F8430446002C0CD020781A
:10237000FE4DC00752D0A86800F00C00E96801F0DB
:1023800003010C2803D004E00120BDE8F8830329F1
:1023900016D0082814D06068B0F5803F17D0B0F58B
:1023A000A02F19D0286820F480302860286820F4F5
:1023B00080202860606818B3FFF730FC06461BE0F9
:1023C000286880032AD5606840BB0120DDE72868C3
:1023D00040F480302860EDE7286840F480202860D1
:1023E000286840F480302860E4E7FFF717FC801B82
:1023F000642801D90320C8E728688003F5D50DE0DB
:10240000FFF70CFC064606E0FFF708FC801B64287B
:1024100001D90320B9E728688003F5D42078800724
:102420004ED5A86800F00C00E96801F003010C2803
:1024300001D102290BD0042809D0E06870B32868C4
:1024400040F480702860FFF7E9FB06461BE028682F
:10245000400501D5E06868B16868217C20F0FE4045
:1024600040EA01606860C2480068FFF7F5FB38B3D6
:1024700001208AE7012088E7FFF7D0FB801B0228B4
:1024800001D9032081E728684005F5D56868217CDB
:1024900020F0FE4040EA0160686011E0286820F406
:1024A00080702860FFF7BAFB064606E0FFF7B6FB30
:1024B000801B022801D9032067E728684005F5D46E
:1024C000207800072CD56069A8B1D5F8940040F0B9
:1024D0000100C5F89400FFF7A1FB064606E0FFF7F0
:1024E0009DFB801B022801D903204EE7D5F89400FC
:1024F0008007F4D514E0D5F8940020F00100C5F869
:102500009400FFF78BFB064606E0FFF787FB801B76
:10251000022801D9032038E7D5F894008007F4D4C5
:10252000207840076FD54FF00008A86DC00009D48F
:10253000A86D40F08050A865A86D00F08050009014
:102540004FF001088B4E3068C00511D4306840F45C
:1025500080703060FFF762FB074606E0FFF75EFB26
:10256000C01B022801D903200FE73068C005F5D54C
:10257000A068012813D0052818D055F8900F20F036
:1025800001002860286820F0040045F89009A06840
:1025900041F2883608B3FFF741FB074618E0D5F84B
:1025A000900040F00100C5F89000F0E755F8900F5A
:1025B00040F004002860286840F0010045F89009C8
:1025C000E5E7FFF72BFBC01BB04201D90320DCE697
:1025D000D5F890008007F4D50EE0FFF71FFB074603
:1025E00006E0FFF71BFBC01BB04201D90320CCE67D
:1025F000D5F890008007F4D4B8F1010F03D1A86D8D
:1026000020F08050A865207880062CD5A069A8B15C
:10261000D5F8980040F00100C5F89800FFF7FEFAE1
:10262000064606E0FFF7FAFA801B022801D90320CC
:10263000ABE6D5F898008007F4D514E0D5F89800FB
:1026400020F00100C5F89800FFF7E8FA064606E01A
:10265000FFF7E4FA801B022801D9032095E6D5F89C
:1026600098008007F4D4E069F0B3A9684FF0FF3711
:10267000C1F3810103295ED0022807D0286820F029
:1026800080702860FFF7CAFA04464CE0286820F002
:1026900080702860FFF7C2FA064606E0FFF7BEFA30
:1026A000801B022801D903206FE628688001F5D439
:1026B00054F8201F6068228A401E41EA0010A16879
:1026C00007EB5202090241EA42510843217D07EB20
:1026D000510140EA4160217B40EAC160E968264A35
:1026E00011400843E86000E062E0286840F0807034
:1026F0002860E86840F08070E860FFF78FFA0446D1
:1027000006E0FFF78BFA001B022801D903203CE604
:1027100028688001F5D54BE0FFF780FA001B0228FE
:1027200001D9032031E628688001F5D4E86813490F
:102730000840E8603CE0012838D0E868226A00F0F0
:102740000301914230D1616A00F0F002491EB2EB00
:10275000011F29D1A26A00F4FE41B1EB022F23D15F
:1027600000F0784194F82C200AE0000000100240AC
:102770003C000020007000400C809F01FCFFEEFE3A
:10278000B1EBC26F10D1228E00F4C00107EB5202F0
:10279000B1EB425F08D194F8341000F0C06007EB51
:1027A0005101B0EB416F03D00120EEE50120ECE5D3
:1027B0000020EAE510B5401EB0F1807F01D3012072
:1027C00010BD4FF0E02460610F21601701F02CFD77
:1027D0000020A06107202061002010BD90F8841027
:1027E000012918D0012180F884102421C0F8881014
:1027F00001680A680B6823F001030B6022F00051A6
:1028000000224266036819602021C0F8881080F811
:10281000842000207047022070477047704770B5D1
:10282000044694F8840001281DD0012084F8840017
:102830002420C4F8880020680568026822F001029C
:1028400002602068826822F060620A43826020464B
:1028500001F0FAF9206805602020C4F88800002003
:1028600084F8840070BD022070BD70B5044694F8F1
:10287000840001281DD0012084F884002420C4F89D
:10288000880020680568026822F001020260206862
:10289000826822F060420A438260204601F0D4F947
:1028A000206805602020C4F88800002084F8840097
:1028B00070BD022070BD7047704770472DE9F04130
:1028C00004462368D86919689A6840F60F0500EA3B
:1028D0000507002F0ED185060CD501F0200502F06A
:1028E0008056354306D0616F00297DD02046BDE873
:1028F000F041084700260225002F76D0B54FDFF8BB
:10290000D8C2174001EA0C0C57EA0C0C6DD05FEAF4
:10291000C07C0CD05FEAC15C09D54FF0010CC3F854
:1029200020C0D4F8903043F00103C4F890308307FE
:1029300009D5D30707D023681D62D4F8903043F03F
:102940000403C4F8903043070AD5D30708D025689C
:1029500004232B62D4F8903043F00203C4F8903083
:1029600003070CD501F020033B4308D0256808235A
:102970002B62D4F8903043F00803C4F8903003057C
:102980000BD54B0109D525684FF400632B62D4F8B1
:10299000903043F02003C4F89030D4F89030002BEE
:1029A0003CD0800609D501F0200002F08051084398
:1029B00003D0616F09B120468847D4F890002168A0
:1029C0008968490602D410F0280F2DD0204601F066
:1029D00021FA20688068400622D52068083050E837
:1029E000001F21F0400101E018E023E040E8001260
:1029F000002AF2D1D4F8800068B178498163D4F814
:102A00008000FEF79BFB002808D0D4F88000816B83
:102A1000BDE8F04108472046FFF74FFFBDE8F081D1
:102A20002046FFF74AFFF9E72046FFF746FFC4F8C4
:102A30009060F3E7E76E012F7DD1C7067BD5CF0607
:102A400079D510201862206880684FF02003400676
:102A500055D5D4F880100A68506880B2F0B3B4F845
:102A60005C7087423FD9A4F85E0008680068800661
:102A70002CD4206850E8001F21F4807140E8001237
:102A8000002AF6D12068083050E8001F21F001012B
:102A900040E80012002AF5D12068083050E8001FF5
:102AA00021F0400140E80012002AF5D1C4F88C3032
:102AB000E666206850E8001F21F0100140E800128F
:102AC000002AF6D1D4F88000FEF704FB2567B4F89D
:102AD0005C00B4F85E10401A81B200E003E02046CA
:102AE000FFF79BFE9AE7B4F85C10814296D110681C
:102AF000800693D525672046FFF78FFE8EE734F8D2
:102B00005C0F6188401A81B260885C3C002885D0E7
:102B1000002983D0206850E8002F22F4907240E80A
:102B20000027002FF6D12B4FFF432068083050E8D4
:102B3000002F3A4000E016E040E8002CBCF1000F06
:102B4000F3D1C4F88C30E6666667206850E8002F41
:102B500022F0100240E80023002BF6D12567204622
:102B6000FFF75BFE5AE7C50209D5550207D54FF4BA
:102B7000801018622046BDE8F041FFF79DBE0306B5
:102B80000CD501F0800302F40002134306D0A16FBC
:102B90000029A7D02046BDE8F0410847420606D5E7
:102BA0004A0604D52046BDE8F04101F05DB90202B5
:102BB00006D54A0004D52046BDE8F041FFF77BBEAC
:102BC000C0018FD500298DDA2046BDE8F041FFF71E
:102BD00025BE00000100001020010004033E000893
:102BE00010B50446002C03D0D4F8880010B107E0DB
:102BF000012010BD002084F88400204600F028F851
:102C00002420C4F888002068016821F001010160D7
:102C1000A06A10B1204601F03BF8204601F036F9D9
:102C2000012813D02068416821F490414160206858
:102C3000816821F02A0181602068016841F001016A
:102C400001602046BDE8104001F086B8012010BDAB
:102C50002DE9F04397B00446142112A8FDF782FB3A
:102C6000442101A8FDF77EFB43482168434C02271D
:102C70000726DFF80C9100254FF48068814238D197
:102C800001200190029501A8FFF7D8F808B1FDF7DF
:102C9000FCFB206E40F480402066206E00F48040F3
:102CA0000090E06C40F00400E064E06C00F0040090
:102CB0000090E06C40F00100E064E06C00F0010086
:102CC000009010201290139714951595169612A93E
:102CD0004846FEF7BDFECDF848801397149515952C
:102CE000169612A94FF09040FEF7B2FE17B0BDE85D
:102CF000F08324488142F9D104200190049501A871
:102D0000FFF79CF808B1FDF7C0FBA06D40F48020F0
:102D1000A065A06D00F480200090E06C40F00200FF
:102D2000E064E06C00F002000090E06C40F0040011
:102D3000E064E06C00F004000090CDF84880139748
:102D400014951595169612A90F48FEF781FE4FF4BB
:102D500000601290139714951595169612A948467F
:102D6000FEF776FE002205212720FEF7C7FF272069
:102D7000FEF7B6FFBAE7000000380140001002403D
:102D80000008004800480040000400482DE9F84FC2
:102D900004460E4615469846D4F88C00202802D0EA
:102DA0000220BDE8F88FC6B1BDB1002720342767E7
:102DB0002220E066E764FEF731FF8146A587E587BC
:102DC00054F8180C203C4FF48053FF2198420BD14B
:102DD000226922B1A4F860100DE00120E1E740F281
:102DE000FF11A4F8601006E07F2278B1B0F1805F97
:102DF00014D0A4F86070B4F86070984201D12069D2
:102E0000A8B1354600264FF0200A2AE0256915B101
:102E1000A4F86020EFE7A4F86010ECE7216919B18D
:102E20003F21A4F86010E6E7A4F86020E3E700255E
:102E3000E9E74B46002220212046CDF8008001F032
:102E40008FF918B1C4F88CA00320AAE785B12068D7
:102E5000406A384005F8010BB4F85E00401EA4F843
:102E60005E00B4F85E000028E3D1C4F88CA098E7B7
:102E70002068406A384026F8020BEDE72DE9F84358
:102E800004460E4615461F46D4F88800202802D076
:102E90000220BDE8F8838EB185B100201834A06708
:102EA00021202067FEF7BAFE8146A587E58754F802
:102EB000100C183CB0F5805F02D003E00120E8E779
:102EC000206920B1354600264FF0200817E0002584
:102ED000FAE74B46002280212046009701F040F996
:102EE00018B1C4F888800320D3E7C5B1216815F86C
:102EF000010B8862B4F85600401EA4F85600B4F8DE
:102F000056000028E5D14B4600224021204600977C
:102F100001F026F950B1C4F888800320B9E736F8EB
:102F2000020B2168C0F308008862E3E7C4F88880D8
:102F30000020AEE77047FEE700EB8100006E00F076
:102F4000F84070478068C0F3C00070478068C0F3E5
:102F5000000070478068C0F3800070478068C0F34D
:102F60008000704710B501F0007300EBD350436947
:102F7000C1F3045107248C40A3438A4013434361A7
:102F800010BD00EB8100016E21F00041114301668C
:102F90007047000070B58CB0002409940A940B941B
:102FA000202101A8FDF7DEF928484FF0A04101607B
:102FB0004FF4403141608460C4600461012141618B
:102FC00004268661047741770325056280F8244052
:102FD000C462046380F83810C46380F84040FDF791
:102FE000B1FE08B1FDF751FA099409A91748FDF798
:102FF0001BFC08B1FDF749FA154801900620029024
:1030000003957F2004900596069401A90F48FDF7CB
:103010007FFC08B1FDF739FA0E4801900C200290B0
:1030200001A90A48FDF774FC08B1FDF72EFA0A4819
:1030300001901220029001A90448FDF769FC0028C4
:1030400001D0FDF722FA0CB070BD00003001002065
:1030500002003004040060080800900C70B588B0CD
:1030600020216846FDF77EF92548244901604FF488
:103070004031416000248460C460046101214161E9
:1030800004268661047741770325056280F8244091
:10309000C462046380F83810C46380F84040FDF7D0
:1030A00051FE08B1FDF7F1F9164800900620019095
:1030B00002957F2003900496059469461048FDF719
:1030C00027FC08B1FDF7E1F90F4800900C200190B2
:1030D00069460B48FDF71CFC08B1FDF7D6F90B4813
:1030E00000901220019069460548FDF711FC002868
:1030F00001D0FDF7CAF908B070BD00000001005012
:103100009C01002000106032002090360040C03A40
:1031100008B51148816C41F004018164816C01F0B3
:1031200004010091816C41F001018164806C00F028
:1031300001000090002205210B20FEF7DFFD0B208F
:10314000FEF7CEFD002205210C20FEF7D7FDBDE8DD
:1031500008400C20FEF7C4BD0010024010B5124814
:1031600010490160002141608160C16001744174B7
:1031700081740122426182610623C361026242625C
:1031800082620822C2620322026341638163C163D7
:10319000FEF7EEFA002803D0BDE81040FDF775B940
:1031A00010BD000000640040C802002010B50B4AAA
:1031B00000210B4801F0C6FA0A4CE062074A0021E0
:1031C0002432094801F0BEFA2063044A0021483243
:1031D000064801F0B7FA606310BD0000A05F000868
:1031E000C13A000800000020253B00089533000884
:1031F00010B586B0142101A8FDF7B4F81A48C16CC7
:1032000041F00401C164C16C01F004010091C16C82
:1032100041F02001C164C16C01F020010091C16C3A
:1032200041F00101C164C16C01F001010091C16C68
:1032300041F00201C164C06C00F0020000900B4C30
:10324000012240212046FEF7E3FC402101910121AB
:103250000291022103910021049101A92046FEF769
:10326000F7FB06B010BD0000001002400008004847
:1032700010B51848164901604FF4E1314160002152
:103280008160C16001610C2242618161C1610162A2
:1032900041628162FFF7A4FC08B1FDF7F6F8002156
:1032A0000C48FFF7E2FA08B1FDF7EFF800210948F2
:1032B000FFF7B5FA08B1FDF7E8F80648FFF78EFA10
:1032C000002803D0BDE81040FDF7DFB810BD0000B6
:1032D000003801402C03002010B518481649016041
:1032E0004FF4E131416000218160C16001610C2235
:1032F00042618161C161016241628162FFF770FCDC
:1033000008B1FDF7C2F800210C48FFF7AEFA08B18A
:10331000FDF7BBF800210948FFF781FA08B1FDF776
:10332000B4F80648FFF75AFA002803D0BDE8104069
:10333000FDF7ABB810BD000000480040C0030020FE
:10334000FEE7FEE71049C86800F00302C868C0F352
:103350000310401C032A0ED00C4AB2FBF0F0CA68DE
:10336000C2F306225043C968C1F34161491C4900B8
:10337000B0FBF1F07047064AB2FBF0F0CA68C2F346
:1033800006225043EFE70000001002400024F40042
:1033900000127A002DED0A8BFDF7F2F94FF4487018
:1033A00001F092F9DFF8F8934FF0000ADFEDFD8AA3
:1033B000FD4FDFF8F8839FEDFEAADFEDFEAA9FED3B
:1033C000FEBA9FEDFE9A9FEDFE8ADFEDFE9ADFEDDD
:1033D000FEBAFE4E3178FE4D287881422CD03078EE
:1033E000012802D0307898B124E04FF0000B01247E
:1033F000A0B20121FDF784F9052001F065F9641CF4
:10340000072CF5DD0BF1010BBBF1020FEFDB11E037
:103410004FF0000B0124A0B20021FDF771F9052047
:1034200001F052F9641C072CF5DD0BF1010BBBF127
:10343000020FEFDB30782870E6480078012816D0BC
:10344000B0EE480AF0EE691AB0EE402AB2EE001A69
:10345000F0EE400A0720FDF78BF8012001F034F967
:10346000DD4C2078A0B1207801287CD01CE3F0EE60
:10347000480AF0EE691AB0EE602AB2EE001AB0EE19
:103480006B0A0720FDF774F8012001F01DF9E7E74A
:1034900085F802A099ED000AB5EEC00AF1EE10FA27
:1034A000E4D0D9ED000AB0EE482A80EEA80A9FEDDC
:1034B000CBCAB0EE6A1AF0EE480AF0EE4C1A0120C0
:1034C000FDF756F8012001F0FFF897ED000A022001
:1034D00001F0AEF8F0EE400AB0EE482A80EEA80AFD
:1034E000F0EE4C1AB0EE4B1AF0EE480A0220FDF74F
:1034F0003FF8012001F0E8F8B94890ED000A0320F8
:1035000001F096F8F0EE400A032080EEA80AF7EEEC
:10351000080AFDF7ADF8012001F0D6F8D8ED000A51
:10352000042080EEA80AF7EE080AFDF7A1F80120B2
:1035300001F0CAF8AB48D0ED000A052080EEA80AD9
:10354000F7EE080AFDF794F8012001F0BDF8A6484F
:10355000D0ED000A062080EEA80AF0EE080AFDF77A
:1035600087F8012000E002E001F0AEF89CE2687804
:1035700001282BD099ED000AB5EEC00AF1EE10FA41
:1035800024D099ED000A85ED010A97ED000A02208A
:1035900001F04EF885ED020A914890ED000A0320F3
:1035A00001F046F885ED030A98ED000A85ED040A5E
:1035B0008C4890ED000A85ED050A8B4890ED000AD5
:1035C00085ED060A0120A87085F803A087480178D8
:1035D00061B10178012960D0017811297DD001788D
:1035E00066297BD00078022879D05DE2D5ED010A0A
:1035F000B0EE482A80EEA80A9FED78CAB0EE6A1AAB
:10360000F0EE480AF0EE4C1A0120FCF7B1FF012061
:1036100001F05AF8D5ED020AB0EE482AF0EE4C1A45
:1036200080EEA80AB0EE4B1AF0EE480A0220FCF732
:103630009FFF012001F048F8D5ED030A032080EE3A
:10364000A80AF0EE000AFDF713F8012001F03CF89B
:10365000D5ED040A042080EEA80AF0EE000AFDF77A
:1036600007F8012001F030F8D5ED050A052080EEBD
:10367000A80AF0EE000AFCF7FBFF012001F024F895
:10368000D5ED060A062080EEA80AF0EE000AFCF747
:10369000EFFF012001F018F806E25548017819B152
:1036A0000078012855D0FFE185ED079A9FED510A7A
:1036B00085ED080AB0EE482A9FED48CAB0EE6A1AB6
:1036C000F0EE480AF0EE4C1AB0EE480A0120FCF782
:1036D0004FFF012000F0F8FF02E0CEE018E170E1BA
:1036E000B6EE002AF0EE4C1AB0EE4B1AF0EE480A95
:1036F00095ED070A0220FCF73BFF012000F0E4FFF4
:10370000F0EE000A95ED080A0320FCF7B1FF012056
:1037100000F0DAFFF0EE000AB0EE480A0420FCF7F1
:10372000A7FF012000F0D0FFF0EE000AB0EE480A3B
:103730000520FCF79DFF012000F0C6FFF0EE000A17
:10374000B0EE480A0620FCF793FF012000F0BCFF12
:10375000AAE14FF4487000F0B7FF9FED27CAD5EDFE
:10376000090A95ED070AB0EE4C1A00F027FE85ED28
:10377000070AB0EE4C1AD5ED0A0A95ED080A00F0DA
:103780001DFE85ED080A9FED15CAB0EE482AB0EE81
:103790006A1AF0EE4C1AF0EE480AB0EE480A2DE034
:1037A000D400002033336542D8000020E000002020
:1037B000CDCC8CBF00005C4200002042295CAFBF32
:1037C00000000000CDCC4C3F333313C0EC00002090
:1037D00000000020EE000020ED0000209A99993FA3
:1037E000DC000020E4000020E8000020EF000020C2
:1037F000F00000209A99D9BFCDCC4C3D0120FCF7B8
:10380000B7FE012000F060FFB0EE482AF0EE4C1A3F
:10381000B0EE4B1AF0EE480A95ED070A0220FCF7CD
:10382000A7FE012000F050FFF1EE000A95ED080A16
:103830000320FCF71DFF012000F046FFF0EE000A18
:10384000B0EE480A0420FCF713FF012000F03CFF13
:10385000F0EE000AB0EE480A0520FCF709FF01204F
:1038600000F032FFF0EE000AB0EE480A0620FCF746
:10387000FFFE012000F028FF16E11FED28CAB0EE80
:10388000482AB0EE6A1AF0EE4C1AF0EE480AB0EE92
:10389000480A0120FCF76CFE012000F015FFB6EE8F
:1038A000002AF0EE4C1AB0EE4B1AF0EE480A9FEDEB
:1038B000810A0220FCF75CFE012000F005FFF0EE1B
:1038C000000AB0EE4A0A0320FCF7D2FE012000F005
:1038D000FBFEF0EE000AB0EE000A0420FCF7C8FE82
:1038E000012000F0F1FEF0EE000AB0EE480A0520DB
:1038F000FCF7BEFE012000F0E7FEF0EE000AB0EE9D
:10390000480A0620FCF7B4FE012000F0DDFECBE003
:10391000B0EE482A1FED4FCAB0EE6A1AF0EE480A20
:10392000F0EE4C1AB0EE480A0120FCF721FE01200F
:1039300000F0CAFE97ED000A022000F079FEF0EEDA
:10394000400AB6EE002A80EEA80AF0EE4C1AB0EE5D
:103950004B1AF0EE480A0220FCF70AFE012000F0A4
:10396000B3FEF0EE000AB0EE4A0A0320FCF780FE38
:10397000012000F0A9FE98ED000A2C2000F058FE6E
:10398000F0EE400A042080EEA80AF0EE000AFCF7F0
:103990006FFE012000F098FEF0EE000AB0EE480A3B
:1039A0000520FCF765FE012000F08EFEF0EE000A17
:1039B000B0EE480A0620FCF75BFE012000F084FE12
:1039C00072E0B0EE482A1FED7BCAB0EE6A1AF0EE44
:1039D000480AF0EE4C1AB0EE480A0120FCF7C8FD88
:1039E000012000F071FEB6EE002AF0EE4C1AB0EEA7
:1039F0004B1AF0EE480AB0EE490A0220FCF7B8FD77
:103A0000012000F061FEF0EE000A1FED860A03209F
:103A1000FCF72EFE012000F057FEF0EE000A9FEDAD
:103A2000260A0420FCF724FE012000F04DFEF0EEF3
:103A3000000AB0EE480A0520FCF71AFE012000F04B
:103A400043FEF0EE000AB0EE480A0620FCF710FE36
:103A5000012000F039FEE87830BB4FF4FA663046BA
:103A600000F032FEB0EE482AF0EE691AB2EE041A07
:103A7000F0EE480A9FED110A0720FCF779FD304669
:103A800000F022FEB0EE482AF0EE691AB2EE041AF7
:103A9000F0EE480AB0EE6B0A0720FCF769FD012042
:103AA00000F012FE0120E87020786870052000F018
:103AB0000BFE8EE4A4709DBF9A99193F0AD7C3BF2D
:103AC000164D0124204600F00FFDB8B135F8140062
:103AD000642802D2401C25F8140035F814000A2886
:103AE0000FD3204600F08CFC01212046FCF708FE95
:103AF00035F81400401C25F8140002E0002025F8D9
:103B00001400641CE4B2072CDCD940210448FEF701
:103B100077F8FA2000F0D8FDD3E70000000100207C
:103B200000080048184C14231E2217491748FFF7B5
:103B30002DF928BB2078BB2822D113481449401CFA
:103B400002680A60134942680A60134982680A6081
:103B50001249C2680A60124902690A601149406943
:103B600008601149607E08701049A07E08701049F5
:103B7000E07E08700F49207F08700F49607F087051
:103B8000022000F0A1FDCEE710010020C0030020BC
:103B9000D4000020D8000020DC000020E00000203D
:103BA000E4000020E8000020EE000020EC000020EF
:103BB000ED000020EF000020F000002010B5FEF71F
:103BC00033F802F02BF8012803D0BDE8104001F0D3
:103BD00045BD10BD10B594B0382106A8FCF7C2FB56
:103BE000142101A8FCF7BEFB0020FEF7B9F8012064
:103BF00006900004079002200D9003240E940F906D
:103C00005521109111901290139006A8FEF7AAFB6F
:103C100008B1FCF73AFC0F200190029400200390B9
:103C200004900590042101A8FEF754FA002801D061
:103C3000FCF72BFC14B010BD0248016841F4700180
:103C40000160704788ED00E030B5416E002917D063
:103C500002689168C1F342619268520F0B4B9C5C01
:103C6000E50003F10804A25CB5FBF2F2A0F86A20BB
:103C70005A5C615CD200B2FBF1F1A0F8681030BD73
:103C8000012168304180018030BD000034600008AF
:103C900090F82810090706D501684A68836B22F45A
:103CA00000421A434A6090F82810C90706D00168FC
:103CB0004A68C36A22F400321A434A6090F8281016
:103CC000890706D501684A68036B22F480321A43DB
:103CD0004A6090F82810490706D501684A68436B86
:103CE00022F480221A434A6090F82810C90606D5AB
:103CF00001688A68C36B22F480521A438A6090F884
:103D00002810890606D501688A68036C22F40052DF
:103D10001A438A6090F82810490611D501684A684C
:103D2000436C22F480121A434A60416CB1F5801F43
:103D300006D101684A68836C22F4C0021A434A60C3
:103D400090F82810090606D501684A68C06C22F46C
:103D5000002202434A6070472DE9F84304460025DB
:103D6000C4F89050FDF75AFF8046206800684FF075
:103D7000200600076FF07E4716D543460022310427
:103D80002046009700F0ECF970B1206850E8001F61
:103D900021F0800140E80012002AF6D184346660E8
:103DA00025700320BDE8F88320680068400720D50F
:103DB000434600224FF480012046009700F0D0F9DE
:103DC000B8B1206850E8001F21F4907140E800125B
:103DD000002AF6D12068083050E8001F21F00101C8
:103DE00040E80012002AF5D18434A6602570032033
:103DF000D8E76C34E6612662256065602576002090
:103E0000D0E710B5806A0021A0F85E10FEF755FDDE
:103E100010BD000010B5016851E8002F22F4907227
:103E200041E80023002BF6D10E4B0168083151E820
:103E3000002F1A4041E80024002CF6D1C16E012960
:103E400008D1016851E8002F22F0100241E8002358
:103E5000002BF6D12021C0F88C100021C1664167EB
:103E600010BD0000FEFFFFEF10B5016851E8002F04
:103E700022F0400241E80023002BF6D12021C0F8B7
:103E8000881000218167FFF755F810BD2DE9F0413A
:103E900004460025A74B20682269A168E669114302
:103EA0006269324311430268A34E32400A43026002
:103EB00020684168E26821F4405111434160A069E3
:103EC0002168994201D0226A10438A689B4E324091
:103ED00002438A602068C16A626A21F00F011143BF
:103EE000C1629749226897488A4214D1D0F8880065
:103EF00010F0030007D0012809D0022805D00328BC
:103F000007D010216AE0012168E0022166E0042167
:103F100064E0082162E08C498A4214D1D0F888001C
:103F200010F00C0007D0042809D0082805D00C2870
:103F300007D0102152E0002150E002214EE0042180
:103F40004CE008214AE081498A4214D1D0F8880027
:103F500010F0300007D0102809D0202805D03028D4
:103F600007D010213AE0002138E0022136E0042198
:103F700034E0082132E076498A4214D1D0F8880032
:103F800010F0C00007D0402809D0802805D0C028F4
:103F900007D0102122E0002120E002211EE00421B0
:103FA0001CE008211AE09A4217D1D0F8880010F4DA
:103FB00040600AD0B0F5806F0BD0B0F5006F06D02E
:103FC000B0F5406F07D0102108E0002106E0022183
:103FD00004E0042102E0082100E010215D485E4E6B
:103FE00000274FF4004C9A4239D1B9B1022905D0CB
:103FF000042916D0082917D00020012560B3616A72
:1040000036F81120B0FBF2F1666806EB46038B42EE
:1040100002D8B1EB063F09D9012582E0FEF744F949
:10402000ECE7FEF765F9E9E76046E7E700231946A4
:10403000FCF74EF9090241EA1061020270081018FB
:10404000794132460023FCF743F9444AA0F5407118
:10405000914202D82168C86063E0012561E0E2690D
:104060004FF6EF78624530D1092911D2DFE801F02F
:10407000050812100B1010100E00FEF715F909E0DC
:10408000FEF724F906E0FEF733F903E0604601E0AD
:1040900000200125F0B3616A36F81110B0FBF1F091
:1040A0004100606801EB5001B1FBF0F0A0F110019C
:1040B000414508D84FF6F0710140C0F3420001437A
:1040C0002068C1602DE001252BE0092911D2DFE82D
:1040D00001F0050812100B1010100E00FEF7E4F8A6
:1040E00009E0FEF7F3F806E0FEF702F903E06046A8
:1040F00001E00020012568B1616A36F81110B0FBBB
:10410000F1F1606801EB5001B1FBF0F0A0F110019A
:10411000414500E005E003D8216880B2C86000E0B6
:1041200001250120683460802080E76027612846EF
:10413000BDE8F08100800040F369FFCFFFF4FF117C
:104140000038014000100240004400400048004098
:10415000004C00400024F4001C600008FFFC0F002D
:104160002DE9F0470446089E0D46174698464FF045
:10417000000935E0701C33D0FDF750FDA0EB0800BE
:10418000B04219D8C6B120680168490728D5802DEA
:1041900026D0402D24D0C169C94309070ED4206818
:1041A000082505622046FFF735FEC4F8905084F8D4
:1041B00084900120BDE8F0870320FBE7C069C0437D
:1041C00000050DD421684FF4006008622046FFF717
:1041D00021FE2020C4F8900084F884900320E9E7B1
:1041E0002068C06935EA000004D00020B842C1D080
:1041F0000020DFE70120F9E70148FEF75FBB000080
:10420000C0030020FEE700000FB4054B10B503A962
:10421000044A029800F028F810BC5DF814FB000076
:10422000D5450008FC0000200907090E002804DB22
:1042300000F1E02080F80014704700F00F0000F15A
:10424000E02080F8141D704702E008C8121F08C162
:10425000002AFAD170477047002001E001C1121F07
:10426000002AFBD1704700002DE9FF4F89B09B4623
:104270000446002506E025280BD05A460B999047A6
:10428000641C6D1C20780028F5D10DB02846BDE8CF
:10429000F08F0027B8460122474900E0074314F891
:1042A000013F203B02FA03F00842F7D120782E2884
:1042B00019D114F8010F47F004072A280ED06FF027
:1042C0002F022078A0F1300109290CD808EB8801D1
:1042D00002EB410100EB0108641CF2E70A98641C40
:1042E00050F8048B0A9020780028CED0642808D09B
:1042F000692806D075281ED05A460B9990476D1C28
:1043000058E00A994FF00A0901C90A91002802DA17
:1043100040422D2102E0390504D52B218DF82010D3
:10432000012103E0F90704D02021F7E78A4608AE0F
:104330000DE00021FAE70A994FF00A0901C90A9134
:10434000F7E74946FCF719F8303106F8011D002857
:10435000F7D1ADEB060000F12009780701D44FF04A
:104360000108C84502DDA8EB090000E000208046F6
:10437000002706E008A85A46C05D0B9990476D1CBF
:104380007F1C5745F6DB04E030205A460B999047D6
:104390006D1CB8F10001A8F10108F5DC05E016F884
:1043A000010B5A460B9990476D1CB9F10001A9F118
:1043B0000109F4DC641C65E709280100B5EEC01AA8
:1043C000F1EE10FA01D2B1EE411AB4EEE00AF1EECC
:1043D00010FA09D230EE010AB4EEE00AF1EE10FA5A
:1043E00001DDB0EE600A7047FDDD30EE410AB4EE4B
:1043F000E00AF1EE10FAF6D2B0EE600A7047000063
:1044000070B50546FB21284600F0A0F804461CB113
:10441000294602A0FFF7F8FE204670BD436C656197
:1044200072206D6F746F72202575206572726F72C5
:10443000206661696C65640D0A00000070B506466F
:104440000C46002C2AD0207800F00F05284600F0FA
:1044500057F8002822D0124905EB450001EB8001F6
:104460000E80CD70207800098870A078627840EACC
:1044700002208880E0782279000140EA1210C8808A
:104480002279607902F00F0240EA02200881A079C7
:104490008872E079C87203490120485570BD000058
:1044A0002C210020F100002010B50446204600F029
:1044B00027F810B10248005D10BD002010BD0000BB
:1044C000F100002010B504462046FFF7EDFF30B1A3
:1044D000044904EB440001EB8000807810BDFF200C
:1044E00010BD00002C21002010B5FFF7EBFFFF28C6
:1044F00004D000F00CF808B1012010BD002010BD60
:10450000401E062801D80120704700207047C01EB9
:104510000C2809D2DFE800F00606060808060606A1
:104520000606060601207047002070474FF4807190
:10453000082809D2DFE800F008040406060606048D
:1045400000207047084670470846704730B58BB06A
:1045500004460D46242102A8FBF704FF10A205CA59
:10456000CDE900028DF807502046FFF7C9FFA8B13A
:104570002046FFF7DBFF20440290002003900490C8
:104580000821059106900790089009900A906A46C4
:1045900002A90548FCF744FF0BB030BD0120FBE742
:1045A000FFFFFFFFFFFFFF00C802002031EE601A8F
:1045B0000121814070EE600A491E00EE101AB8EE2B
:1045C000C00A20EE800AC0EE010ABDEEE00A10EE3D
:1045D000100A704738B5044600944FF47A730122EC
:1045E00069460248FEF74AFC204638BD2C030020ED
:1045F000FDF722FBFFF7EEFAFEF7FAFDFEF788FD66
:10460000FEF736FEFEF7C6FCFEF728FDFEF7A6FD18
:10461000FEF762FE04A0FFF7F7FD00F063F8FEF777
:10462000C5FD00F073F8FEE7424547494E0D0A000C
:1046300002280BD0032819D02C2806D110EE100A1E
:104640001649884222DAB2EE040A704710EE100AC8
:104650001349884202D99FED130A704710EE100AE1
:1046600011498842F9DD9FED110A704710EE100ADA
:104670000F49884202D99FED0F0A704710EE100AC9
:104680000D498842F9DD9FED0D0A704710EE100AC2
:104690000B498842F9DD9FED0B0A7047000020416D
:1046A0000000B4C20000B4C20000B4420000B44232
:1046B000000007C3000007C30000074300000743D2
:1046C000000011430000114310B5EFF305810029EC
:1046D00002D06FF0050403E0002408B100F052FEA0
:1046E000204610BDEFF30580002802D06FF00500D2
:1046F00070470548016811B14FF0FF307047012144
:1047000001600020704700009C00002010B5EFF30E
:104710000580002802D06FF0050010BD0748016831
:10472000012902D04FF0FF3010BD054A0021117061
:104730000221016000F094FE002010BD9C000020CA
:104740001FED00E02DE9FF470B464FF00008CDF8C4
:104750000C80EFF3058199BB90B3802618240025C7
:10476000691E72B3176807B13D46976907B13C46A9
:10477000671E382F02D21779FF0703D0002004B03C
:10478000BDE8F087576907B1BE08D2F808C0BCF190
:10479000000F0CD0D2F80C90B9F15C0F07D3D2F80F
:1047A0001090B9F1000F02D00FB101210BE0BCF164
:1047B000000F08D1D76837B9176927B9002102E07F
:1047C0001BE0FFE70021012901D059B115E09168F4
:1047D00012690291CDE900423246294601F0F0F912
:1047E00003900AE003A9CDE90041B2B2294601F0E5
:1047F000B5F9012801D0CDF80C800398BFE700007F
:104800002DE9F04104460F46134EF5683068001D4F
:1048100000F082FC601C07D137B13168BDE8F0417F
:10482000091D0E4800F0C8BC2C4430684460AC42FE
:1048300006D23168B06B091DBDE8F04100F0A4BCA0
:104840003168706B091D00F09FFCB06A844200D291
:10485000B462BDE8F08100004C0000204409002053
:1048600070B5044600F0B4FC1C4DA868401CA8605C
:10487000286810B1686938B10CE02C60A86801287C
:1048800008D100F099F905E02868E16AC06A884219
:1048900000D82C60686A401C68626064E06A29691C
:1048A000884200D928610E4900EB800001EB8000AE
:1048B000211D00F081FC00F0ABFC686900280CD0E1
:1048C0002868E16AC06A884207D206494FF08050E2
:1048D0000860BFF34F8FBFF36F8F70BD4C00002097
:1048E0009404002004ED00E038B500F071FC104C99
:1048F0002068C8B90F4800F039FC0E48143000F0A9
:1049000035FC0C48E060143020610A4B0020F03B7D
:10491000009003F1500210210A2000F0B5FE206043
:1049200010B105A100F0F8FCBDE8384000F070BC03
:1049300088000020480A0020546D725100000000D9
:1049400070B50C4D0C4E11E000F042FCF068C468EC
:10495000201D00F0E1FBA868401EA8606868401EAA
:10496000686000F055FC204600F053F868680028A5
:10497000EAD170BD4C0000203009002030B40B4655
:10498000026C002A0CD0C1681144C1608468A14245
:1049900001D30168C160C16830BC1846FBF7C9BCCF
:1049A00030BC70472DE9F041044617460026A56B40
:1049B000226C002A10D0C7B1E068FBF7BAFCE168AE
:1049C000206C091AE1602268914202D2A168081A9B
:1049D000E060022F16D017E02068A8B9A06801F0A7
:1049E00097F906460020A0600EE06068FBF7A1FC86
:1049F000216C606808446060A168884204D3206824
:104A0000606001E005B16D1E6D1CA5633046BDE818
:104A1000F08110B5044694F8590000280BD0012805
:104A200011D0022814D0502080F31188BFF34F8F8B
:104A3000BFF36F8FFEE7206B00F000FC2046BDE85F
:104A4000104000F0FBBB2046BDE8104000F0F6BB74
:104A500010BD00000749CA681168002904D0002170
:104A6000016019B1002070470121F9E7D0680068A2
:104A700070470000880000204FF47E610F48420715
:104A800006D0C01D20F007000C49411AC1F57E6117
:104A90000B4A1060002353600144083921F00701DC
:104AA000183A11604B600B600B1A4360016040685C
:104AB000906050604FF00040506170472811002016
:104AC000B8000020074E4FF08054074DFFF738FF25
:104AD00030680128FAD92C60BFF34F8FBFF36F8F76
:104AE000F4E700009404002004ED00E070B51D46DA
:104AF000049C002909D02260E06321640121204642
:104B000000F0F8FD84F84C5070BD2460F4E72DE906
:104B1000F05F8246DDE90A590C9C0E4617469B461B
:104B2000B900A522206BFBF716FC206B7F1E00EB63
:104B3000870020F00707780707D0502080F31188FE
:104B4000BFF34F8FBFF36F8FFEE74FF0000866B1E2
:104B500000202218315C82F83410315C11B1401C05
:104B60001028F6D384F8438001E084F83480382D8F
:104B700000D33725E562E564C4F85080201D00F0BD
:104B800000FB04F1180000F0FCFA2461C5F13800C4
:104B9000A0616462C4F8548084F858805A46514633
:104BA000384600F0A7FA2060B9F1000F01D0C9F82B
:104BB0000040BDE8F09F000070B50024114D04EBEB
:104BC000840005EB800000F0D1FA641C382CF6D389
:104BD0000D4800F0CBFA0C48143000F0C7FA0A4830
:104BE000283000F0C3FA08483C3000F0BFFA06480D
:104BF000503000F0BBFA054803494163143181632A
:104C000070BD000094040020F40800204C00002037
:104C100030B5134900E011460A688242FBD34B6865
:104C20005C18844203D140681844486008460D6807
:104C300044682318AB420DD1094B183B1B689A42BC
:104C400006D05268224442600A681268026002E09C
:104C5000036000E00260814200D0086030BD0000C7
:104C6000B800002070B50024416000610C4D9142F5
:104C70000AD8D11A8269914201D301240EE0011DA4
:104C8000286900F081FA09E09A4203D2994201D3DF
:104C9000012403E0011DE86800F076FA204670BDAB
:104CA0008800002010B5044600F092FAA06B20B1F5
:104CB000002400F0ADFA204610BD0124F9E710B53C
:104CC000044600F085FAA06BE16B884201D1012413
:104CD00000E0002400F09CFA204610BDF8B505461F
:104CE0000E461748C068C068C468201D00F014FA5A
:104CF00094F82800410718D5A0692B46411932467F
:104D00002046FFF7AFFFA0B1002003460146009008
:104D10002A46204601F00EF958B9502080F3118838
:104D2000BFF34F8FBFF36F8FFEE720F0010084F8D1
:104D30002800216A01B02046BDE8F0400847000085
:104D40008800002030B587B03C4D6EE00398002805
:104D500003DADDE90420069990470398002864DB14
:104D6000059C606910B1201D00F0D6F902A800F082
:104D7000AFF8024603980A2857D2DFE800F005058D
:104D8000052D334A05052D3394F8280040F0010025
:104D900084F828000498A169034601442046FFF7DF
:104DA00061FF68B3216A2046884794F828004007CD
:104DB0003BD5002000900498A169002342181946B1
:104DC000204601F0B7F8D8B9502080F31188BFF31E
:104DD0004F8FBFF36F8FFEE714F8280F20F001000C
:104DE000207022E094F8280040F0010084F82800A8
:104DF0000498A06128B1811813462046FFF732FFBE
:104E000013E0502080F31188BFF34F8FBFF36F8FF3
:104E1000FEE794F82800810703D4204600F00EFA3C
:104E200003E020F0010084F82800002203A928688C
:104E300000F0B8FD002889D107B030BD88000020FF
:104E4000F8B506460D4600F053FB684600F040F802
:104E50000446009810B100F0D5FFF8BD45B9A64250
:104E600006D800F0CFFF21463046FFF737FFF8BDE8
:104E70000C481DB10169096891B10025311B2A4612
:104E8000006800F05BFA00F0BDFF0028EFD1064992
:104E90004FF080500860BFF34F8FBFF36F8FF8BDA6
:104EA0000125EBE78800002004ED00E00748416B96
:104EB0000968002905D0416BC968C96849688162E1
:104EC00070474FF0FF318162704700004C000020B6
:104ED00070B5054600F0B0FE0446074EB068844247
:104EE00004D200F00BF80120286001E000202860C7
:104EF000B460204670BD000088000020F8B51A4E4E
:104F000020E0C0680568C468201D00F005F9216A2A
:104F10002046884794F82800400713D5A069284404
:104F2000A84206D960602461211DF06800F02CF9C8
:104F300008E000200346014600902A46204600F083
:104F4000F9FF40B1F06801680029DAD1F0683169F1
:104F5000F1603061F8BD502080F31188BFF34F8FAE
:104F6000BFF36F8FFEE7000088000020094840680B
:104F7000401C07D0502080F31188BFF34F8FBFF340
:104F80006F8FFEE7502080F31188BFF34F8FBFF380
:104F90006F8FFEE7C000002008B56846FFF75AFD96
:104FA0000099FFF74DFFFFF7CDFEF6E72DE9F04141
:104FB000044600F00DF994F9455004F1240609E087
:104FC000606A48B1304600F0E1FE08B100F00AFA2C
:104FD0006D1E6DB2002DF3DC4FF0FF3684F8456096
:104FE00000F016F900F0F4F894F9445004F11007B9
:104FF00009E0206948B1384600F0C8FE08B100F069
:10500000F1F96D1E6DB2002DF3DC84F84460BDE84B
:10501000F04100F0FDB800002DE9F0410546002602
:1050200000F066FA324F386808B9FFF725FD786955
:1050300005424DD18DB1083568070ED005F0070047
:10504000C0F108000544680707D0502080F311889C
:10505000BFF34F8FBFF36F8FFEE7CDB37868854204
:1050600036D8234918310846046801E02146044631
:105070006068A84202D220680028F7D138688442CC
:1050800026D00E680836206808606068411B102929
:105090000ED96019420707D0502080F31188BFF362
:1050A0004F8FBFF36F8FFEE741606560FFF7B0FD84
:1050B00061687868401A7860BA68904200D2B86037
:1050C00078690143616000202060F868401CF86046
:1050D00000F098FE700707D0502080F31188BFF3CE
:1050E0004F8FBFF36F8FFEE73046BDE8F0810000C1
:1050F000A000002024384FF08073036221F00101EA
:10510000C1610449816142606FF0020140F82019D9
:10511000704700006D4F00080169D0E901329A60C4
:10512000D0E901235A604A68824201D182684A600C
:10513000002202610868401E08600868704700008D
:10514000034B036003F15C0008608020106070472F
:10515000700A0020044B036003F15C0008604FF408
:105160008070106070470000CC0C002000F1080136
:1051700041604FF0FF328260C16001610021016037
:10518000704700210161704730B50C68621C02D085
:1051900000F1080202E0026904E01A4653681D6843
:1051A000A542FAD953684B6099608A6051600861E2
:1051B0000168491C016030BD42684A6093688B6099
:1051C00093685960916008610168491C01607047EB
:1051D000502080F31188BFF34F8FBFF36F8F0A49C0
:1051E0004868401C486001280CD10848006810F04D
:1051F000FF0F07D0502080F31188BFF34F8FBFF30C
:105200006F8FFEE770470000C000002004ED00E053
:1052100009494868002806D0401E4860002801D18E
:1052200080F311887047502080F31188BFF34F8FAF
:10523000BFF36F8FFEE70000C000002070B50028AC
:105240002AD008380446154D60686969084207D1BC
:10525000502080F31188BFF34F8FBFF36F8FFEE7AD
:1052600022683AB1502080F31188BFF34F8FBFF30B
:105270006F8FFEE78843606000F03AF96068696804
:10528000084468602046FFF7C3FC2869401C286179
:10529000BDE8704000F0B6BD70BD0000A000002069
:1052A0004FF0E02000210161816105494FF47A72DD
:1052B0000968B1FBF2F1491E4161072101617047A4
:1052C0004800002010B5FAF7EDFF114910280ED361
:1052D00000F1E02090F8F0030A78904207D25020C5
:1052E00080F31188BFF34F8FBFF36F8FFEE709483C
:1052F0000068896800F4E060884207D9502080F394
:105300001188BFF34F8FBFF36F8FFEE710BD000012
:10531000C00000200CED00E010B50022064B53F851
:1053200032401CB1521C082AF9D310BD43F8321088
:1053300003EBC201486010BD5404002070B5044660
:105340000D461646FFF744FF94F944304FF0000035
:105350005B1C01D184F8440094F94510491C01D12B
:1053600084F84500FFF754FFA06B28B93246294660
:1053700004F1240000F056F82046BDE87040FFF725
:1053800015BE000010B502460020002A12D00F48BA
:10539000006B38B1502080F31188BFF34F8FBFF3FB
:1053A0006F8FFEE700F0A4F800211046FFF728FAFF
:1053B00000F028FD002807D105494FF08050086013
:1053C000BFF34F8FBFF36F8F10BD00004C00002064
:1053D00004ED00E002490A6A0260C9684160704752
:1053E0004C00002001490120C86170474C0000209A
:1053F00010B50C4600280AD0094909681831FFF792
:10540000C3FE2046BDE810400121FFF7F9B9502046
:1054100080F31188BFF34F8FBFF36F8FFEE700005B
:105420004C00002070B50D46144600280DD00B49E5
:1054300009681831FFF7C0FE0CB14FF0FF35214667
:105440002846BDE87040FFF7DBB9502080F3118893
:10545000BFF34F8FBFF36F8FFEE700004C000020BB
:1054600030B587B000250695059504AA05A906A8BC
:10547000FFF766FEDDE90510CDE90051029000233B
:1054800017A11948049A00F09BFB184CE06208B180
:10549000012000E00020012801D100F017FD0128C3
:1054A00009D0401C19D1502080F31188BFF34F8FD1
:1054B000BFF36F8FFEE7502080F31188BFF34F8F4B
:1054C000BFF36F8F4FF0FF30A06201206061E56095
:1054D00007B0BDE8304000F047B807B030BD00006D
:1054E00049444C4500000000C54A00084C0000201B
:1054F0000248016B491C0163704700004C0000200A
:1055000010B5174B186B002802D00120D86110BDD0
:105510000020D8611869134901E0C0B1401E00EBBA
:10552000800251F82220002AF7D000EB800201EB24
:1055300082014A6852684A6001F10804A24201D11E
:1055400052684A604968C9681960186110BD5020E6
:1055500080F31188BFF34F8FBFF36F8FFEE700001A
:105560004C000020940400201CB537480168374ADD
:10557000914207D1502080F31188BFF34F8FBFF3C2
:105580006F8FFEE700683149491E884207D15020DD
:1055900080F31188BFF34F8FBFF36F8FFEE72C4965
:1055A00008780190FF200870087800909DF80000AE
:1055B0009DF8002000F0F000904207D0502080F3CA
:1055C0001188BFF34F8FBFF36F8FFEE79DF8000088
:1055D000204C00F0500020700720A06006E0A0687A
:1055E000401EA0609DF80000400000909DF8000063
:1055F0000006F4D4A068032807D0502080F3118857
:10560000BFF34F8FBFF36F8FFEE74FF44070A06082
:10561000019808700C482030016841F47001016065
:10562000016841F070410160FFF73AFE00206060C0
:10563000FAF700FE0848016841F040410160FAF7BE
:10564000E5FD00201CBD000000ED00E071C20F412F
:1056500000E400E0C000002034EF00E010B550206E
:1056600080F31188BFF34F8FBFF36F8F00F0EAFA1A
:1056700018B104494FF080500860002080F3118871
:1056800010BD000004ED00E038B5049D002804D0F2
:105690005BB102B189B1C2B120E0502080F3118822
:1056A000BFF34F8FBFF36F8FFEE7502080F3118859
:1056B000BFF34F8FBFF36F8FFEE7502080F3118849
:1056C000BFF34F8FBFF36F8FFEE739B1502080F3E8
:1056D0001188BFF34F8FBFF36F8FFEE75024009404
:1056E0001C46012384F846302B460094FFF7FEF950
:1056F000204638BD70B504460D46002C25D0FFF776
:1057000067FDD4E90F20216802FB0011A160002190
:10571000A16321686160E06B2268216C401E00FB80
:105720000121E1604FF0FF3084F8440084F8450027
:1057300004F110008DB1FFF719FD04F12400FFF70B
:1057400015FDFFF765FD012070BD502080F3118825
:10575000BFF34F8FBFF36F8FFEE721690029F0D0B1
:1057600000F014FB0028ECD004494FF08050086092
:10577000BFF34F8FBFF36F8FE3E7000004ED00E04E
:105780002DE9FF4782B004468A461E460025002CBC
:1057900003D0BAF1000F08D011E0502080F3118837
:1057A000BFF34F8FBFF36F8FFEE7206C38B15020EF
:1057B00080F31188BFF34F8FBFF36F8FFEE7022E88
:1057C0000AD1E06B012807D0502080F31188BFF385
:1057D0004F8FBFF36F8FFEE700F020FA48B90498AF
:1057E00038B1502080F31188BFF34F8FBFF36F8F14
:1057F000FEE74FF000094FF08057DFF8E480FFF735
:10580000E7FCA06BE16B884205D3022E03D004981D
:1058100008B325B327E0324651462046FFF7C2F8C9
:10582000616A59B104F1240000F0B0FA68B1C8F817
:105830000070BFF34F8FBFF36F8F06E028B1C8F839
:105840000070BFF34F8FBFF36F8FFFF7E1FC0120B4
:1058500006B0BDE8F087FFF7DBFC0020F8E76846FC
:10586000FFF7B8FD0125FFF7D3FCFFF741FEFFF777
:10587000AFFC94F94400401C01D184F8449094F9A1
:105880004500401C01D184F84590FFF7C1FC04A9F4
:10589000684600F025F930B12046FFF787FB00F09D
:1058A000B1FA0020D4E72046FFF709FA90B104F1DD
:1058B00010000499FFF79CFD2046FFF777FB00F0EE
:1058C000A1FA00289BD1C8F80070BFF34F8FBFF337
:1058D0006F8F94E72046FFF769FB00F093FA8EE79D
:1058E00004ED00E02DE9F0470446894690461F4646
:1058F000002C03D0B9F1000F08D011E0502080F344
:105900001188BFF34F8FBFF36F8FFEE7206C38B164
:10591000502080F31188BFF34F8FBFF36F8FFEE7E6
:10592000022F0AD1E06B012807D0502080F31188A4
:10593000BFF34F8FBFF36F8FFEE7FFF7C3FC50201D
:10594000EFF3118680F31188BFF34F8FBFF36F8F92
:10595000A06BE16B884206D3022F04D0002086F3AF
:105960001188BDE8F08794F94550A06B3A46494646
:105970002046FFF717F8681C04D06D1C84F84550CA
:105980000120ECE7606A0028FAD004F1240000F05E
:10599000FDF90028F4D0B8F1000FF1D00120C8F8CB
:1059A0000000EDE72DE9F74783B004468A4600265C
:1059B000002C03D0BAF1000F08D011E0502080F382
:1059C0001188BFF34F8FBFF36F8FFEE7206C38B1A4
:1059D000502080F31188BFF34F8FBFF36F8FFEE726
:1059E00000F01CF948B9059838B1502080F31188AF
:1059F000BFF34F8FBFF36F8FFEE700274FF0805844
:105A0000DFF8D890FFF7E4FBA56BC5B151462046FF
:105A1000FEF7B4FF6D1EA563206950B104F11000BC
:105A200000F0B4F928B1C9F80080BFF34F8FBFF37D
:105A30006F8FFFF7EDFB012006B0BDE8F0870598FA
:105A400008B126B107E0FFF7E3FB0020F4E701A867
:105A5000FFF7C0FC0126FFF7DBFBFFF749FDFFF76F
:105A6000B7FB94F94400401C01D184F8447094F9C8
:105A70004500401C01D184F84570FFF7C9FB05A91A
:105A800001A800F02DF858B12046FFF78FFA00F07A
:105A9000B9F92046FFF706F90028B3D00020CBE77C
:105AA0002046FFF7FFF890B104F124000599FFF7B5
:105AB0009FFC2046FFF77AFA00F0A4F90028A1D154
:105AC000C9F80080BFF34F8FBFF36F8F9AE720466E
:105AD000FFF76CFA00F096F994E7000004ED00E09F
